{
  "contractName": "UniswapExample",
  "abi": [
    {
      "inputs": [],
      "stateMutability": "nonpayable",
      "type": "constructor"
    },
    {
      "inputs": [],
      "name": "sushiswapRouter",
      "outputs": [
        {
          "internalType": "contract IUniswapV2Router02",
          "name": "",
          "type": "address"
        }
      ],
      "stateMutability": "view",
      "type": "function"
    },
    {
      "inputs": [],
      "name": "uniswapRouter",
      "outputs": [
        {
          "internalType": "contract IUniswapV2Router02",
          "name": "",
          "type": "address"
        }
      ],
      "stateMutability": "view",
      "type": "function"
    },
    {
      "stateMutability": "payable",
      "type": "receive"
    },
    {
      "inputs": [
        {
          "internalType": "uint256",
          "name": "_tokenAmountToBuy",
          "type": "uint256"
        },
        {
          "internalType": "address",
          "name": "_tokenAddress",
          "type": "address"
        },
        {
          "internalType": "address[]",
          "name": "_pathIn",
          "type": "address[]"
        },
        {
          "internalType": "address[]",
          "name": "_pathOut",
          "type": "address[]"
        },
        {
          "internalType": "uint256",
          "name": "_deadline",
          "type": "uint256"
        },
        {
          "internalType": "bool",
          "name": "_enforcePositiveEV",
          "type": "bool"
        }
      ],
      "name": "convertEthToTokenAndBackUni2Sushi",
      "outputs": [],
      "stateMutability": "payable",
      "type": "function"
    },
    {
      "inputs": [
        {
          "internalType": "uint256",
          "name": "_tokenAmountToBuy",
          "type": "uint256"
        },
        {
          "internalType": "address",
          "name": "_tokenAddress",
          "type": "address"
        },
        {
          "internalType": "address[]",
          "name": "_pathIn",
          "type": "address[]"
        },
        {
          "internalType": "address[]",
          "name": "_pathOut",
          "type": "address[]"
        },
        {
          "internalType": "uint256",
          "name": "_deadline",
          "type": "uint256"
        },
        {
          "internalType": "bool",
          "name": "_enforcePositiveEV",
          "type": "bool"
        }
      ],
      "name": "convertEthToTokenAndBackSushi2Uni",
      "outputs": [],
      "stateMutability": "payable",
      "type": "function"
    },
    {
      "inputs": [
        {
          "internalType": "uint256",
          "name": "_tokenAmount",
          "type": "uint256"
        },
        {
          "internalType": "address[]",
          "name": "_pathOut",
          "type": "address[]"
        }
      ],
      "name": "getEstimatedETHForTokenAtUNI",
      "outputs": [
        {
          "internalType": "uint256[]",
          "name": "",
          "type": "uint256[]"
        }
      ],
      "stateMutability": "view",
      "type": "function"
    },
    {
      "inputs": [
        {
          "internalType": "uint256",
          "name": "_tokenAmount",
          "type": "uint256"
        },
        {
          "internalType": "address[]",
          "name": "_pathOut",
          "type": "address[]"
        }
      ],
      "name": "getEstimatedETHForTokenAtSUSHI",
      "outputs": [
        {
          "internalType": "uint256[]",
          "name": "",
          "type": "uint256[]"
        }
      ],
      "stateMutability": "view",
      "type": "function"
    },
    {
      "inputs": [
        {
          "internalType": "address",
          "name": "_tokenAddress",
          "type": "address"
        }
      ],
      "name": "withdrawBalanceToken",
      "outputs": [],
      "stateMutability": "nonpayable",
      "type": "function"
    },
    {
      "inputs": [],
      "name": "withdrawBalanceETH",
      "outputs": [],
      "stateMutability": "nonpayable",
      "type": "function"
    },
    {
      "inputs": [
        {
          "internalType": "address payable",
          "name": "_newOwner",
          "type": "address"
        }
      ],
      "name": "changeOwner",
      "outputs": [],
      "stateMutability": "nonpayable",
      "type": "function"
    }
  ],
  "bytecode": "0x608060405234801561001057600080fd5b50737a250d5630b4cf539739df2c5dacb4c659f2488d600160006101000a81548173ffffffffffffffffffffffffffffffffffffffff021916908373ffffffffffffffffffffffffffffffffffffffff160217905550737a250d5630b4cf539739df2c5dacb4c659f2488d600260006101000a81548173ffffffffffffffffffffffffffffffffffffffff021916908373ffffffffffffffffffffffffffffffffffffffff160217905550336000806101000a81548173ffffffffffffffffffffffffffffffffffffffff021916908373ffffffffffffffffffffffffffffffffffffffff160217905550611a828061010a6000396000f3fe6080604052600436106100895760003560e01c8063371b2a9911610059578063371b2a99146102f0578063529da813146103d5578063735de9f7146104e3578063a6f9dae114610524578063e9240c2d1461057557610090565b8062d0c810146100955780631050b910146100e65780631e116b4e146101cb5780632ea4b859146102d957610090565b3661009057005b600080fd5b3480156100a157600080fd5b506100e4600480360360208110156100b857600080fd5b81019080803573ffffffffffffffffffffffffffffffffffffffff1690602001909291905050506105b6565b005b3480156100f257600080fd5b506101746004803603604081101561010957600080fd5b81019080803590602001909291908035906020019064010000000081111561013057600080fd5b82018360208201111561014257600080fd5b8035906020019184602083028401116401000000008311171561016457600080fd5b909192939192939050505061075f565b6040518080602001828103825283818151815260200191508051906020019060200280838360005b838110156101b757808201518184015260208101905061019c565b505050509050019250505060405180910390f35b6102d7600480360360c08110156101e157600080fd5b8101908080359060200190929190803573ffffffffffffffffffffffffffffffffffffffff1690602001909291908035906020019064010000000081111561022857600080fd5b82018360208201111561023a57600080fd5b8035906020019184602083028401116401000000008311171561025c57600080fd5b90919293919293908035906020019064010000000081111561027d57600080fd5b82018360208201111561028f57600080fd5b803590602001918460208302840111640100000000831117156102b157600080fd5b909192939192939080359060200190929190803515159060200190929190505050610941565b005b3480156102e557600080fd5b506102ee611002565b005b3480156102fc57600080fd5b5061037e6004803603604081101561031357600080fd5b81019080803590602001909291908035906020019064010000000081111561033a57600080fd5b82018360208201111561034c57600080fd5b8035906020019184602083028401116401000000008311171561036e57600080fd5b90919293919293905050506110c2565b6040518080602001828103825283818151815260200191508051906020019060200280838360005b838110156103c15780820151818401526020810190506103a6565b505050509050019250505060405180910390f35b6104e1600480360360c08110156103eb57600080fd5b8101908080359060200190929190803573ffffffffffffffffffffffffffffffffffffffff1690602001909291908035906020019064010000000081111561043257600080fd5b82018360208201111561044457600080fd5b8035906020019184602083028401116401000000008311171561046657600080fd5b90919293919293908035906020019064010000000081111561048757600080fd5b82018360208201111561049957600080fd5b803590602001918460208302840111640100000000831117156104bb57600080fd5b9091929391929390803590602001909291908035151590602001909291905050506112a4565b005b3480156104ef57600080fd5b506104f8611965565b604051808273ffffffffffffffffffffffffffffffffffffffff16815260200191505060405180910390f35b34801561053057600080fd5b506105736004803603602081101561054757600080fd5b81019080803573ffffffffffffffffffffffffffffffffffffffff16906020019092919050505061198b565b005b34801561058157600080fd5b5061058a611a26565b604051808273ffffffffffffffffffffffffffffffffffffffff16815260200191505060405180910390f35b60008054906101000a900473ffffffffffffffffffffffffffffffffffffffff1673ffffffffffffffffffffffffffffffffffffffff163373ffffffffffffffffffffffffffffffffffffffff161461060e57600080fd5b8073ffffffffffffffffffffffffffffffffffffffff1663a9059cbb338373ffffffffffffffffffffffffffffffffffffffff166370a08231306040518263ffffffff1660e01b8152600401808273ffffffffffffffffffffffffffffffffffffffff16815260200191505060206040518083038186803b15801561069257600080fd5b505afa1580156106a6573d6000803e3d6000fd5b505050506040513d60208110156106bc57600080fd5b81019080805190602001909291905050506040518363ffffffff1660e01b8152600401808373ffffffffffffffffffffffffffffffffffffffff16815260200182815260200192505050602060405180830381600087803b15801561072057600080fd5b505af1158015610734573d6000803e3d6000fd5b505050506040513d602081101561074a57600080fd5b81019080805190602001909291905050505050565b606060008054906101000a900473ffffffffffffffffffffffffffffffffffffffff1673ffffffffffffffffffffffffffffffffffffffff163373ffffffffffffffffffffffffffffffffffffffff16146107b957600080fd5b600160009054906101000a900473ffffffffffffffffffffffffffffffffffffffff1673ffffffffffffffffffffffffffffffffffffffff1663d06ca61f8585856040518463ffffffff1660e01b815260040180848152602001806020018281038252848482818152602001925060200280828437600081840152601f19601f82011690508083019250505094505050505060006040518083038186803b15801561086357600080fd5b505afa158015610877573d6000803e3d6000fd5b505050506040513d6000823e3d601f19601f8201168201806040525060208110156108a157600080fd5b81019080805160405193929190846401000000008211156108c157600080fd5b838201915060208201858111156108d757600080fd5b82518660208202830111640100000000821117156108f457600080fd5b8083526020830192505050908051906020019060200280838360005b8381101561092b578082015181840152602081019050610910565b5050505090500160405250505090509392505050565b60008054906101000a900473ffffffffffffffffffffffffffffffffffffffff1673ffffffffffffffffffffffffffffffffffffffff163373ffffffffffffffffffffffffffffffffffffffff161461099957600080fd5b60006109a689868661075f565b6001815181106109b257fe5b602002602001015190508115610a395780341115610a38576040517f08c379a000000000000000000000000000000000000000000000000000000000815260040180806020018281038252600f8152602001807f4e6f7420506f736974697665204556000000000000000000000000000000000081525060200191505060405180910390fd5b5b600260009054906101000a900473ffffffffffffffffffffffffffffffffffffffff1673ffffffffffffffffffffffffffffffffffffffff16637ff36ab5348b8a8a30896040518763ffffffff1660e01b815260040180868152602001806020018473ffffffffffffffffffffffffffffffffffffffff1681526020018381526020018281038252868682818152602001925060200280828437600081840152601f19601f82011690508083019250505096505050505050506000604051808303818588803b158015610b0b57600080fd5b505af1158015610b1f573d6000803e3d6000fd5b50505050506040513d6000823e3d601f19601f820116820180604052506020811015610b4a57600080fd5b8101908080516040519392919084640100000000821115610b6a57600080fd5b83820191506020820185811115610b8057600080fd5b8251866020820283011164010000000082111715610b9d57600080fd5b8083526020830192505050908051906020019060200280838360005b83811015610bd4578082015181840152602081019050610bb9565b505050509050016040525050505060008873ffffffffffffffffffffffffffffffffffffffff166370a08231306040518263ffffffff1660e01b8152600401808273ffffffffffffffffffffffffffffffffffffffff16815260200191505060206040518083038186803b158015610c4b57600080fd5b505afa158015610c5f573d6000803e3d6000fd5b505050506040513d6020811015610c7557600080fd5b810190808051906020019092919050505090508873ffffffffffffffffffffffffffffffffffffffff1663095ea7b3737a250d5630b4cf539739df2c5dacb4c659f2488d7fffffffffffffffffffffffffffffffffffffffffffffffffffffffffffffffff6040518363ffffffff1660e01b8152600401808373ffffffffffffffffffffffffffffffffffffffff16815260200182815260200192505050602060405180830381600087803b158015610d2d57600080fd5b505af1158015610d41573d6000803e3d6000fd5b505050506040513d6020811015610d5757600080fd5b810190808051906020019092919050505050600160009054906101000a900473ffffffffffffffffffffffffffffffffffffffff1673ffffffffffffffffffffffffffffffffffffffff166318cbafe582848989308a6040518763ffffffff1660e01b815260040180878152602001868152602001806020018473ffffffffffffffffffffffffffffffffffffffff1681526020018381526020018281038252868682818152602001925060200280828437600081840152601f19601f820116905080830192505050975050505050505050600060405180830381600087803b158015610e4357600080fd5b505af1158015610e57573d6000803e3d6000fd5b505050506040513d6000823e3d601f19601f820116820180604052506020811015610e8157600080fd5b8101908080516040519392919084640100000000821115610ea157600080fd5b83820191506020820185811115610eb757600080fd5b8251866020820283011164010000000082111715610ed457600080fd5b8083526020830192505050908051906020019060200280838360005b83811015610f0b578082015181840152602081019050610ef0565b505050509050016040525050505060003373ffffffffffffffffffffffffffffffffffffffff164760405180600001905060006040518083038185875af1925050503d8060008114610f79576040519150601f19603f3d011682016040523d82523d6000602084013e610f7e565b606091505b5050905080610ff5576040517f08c379a000000000000000000000000000000000000000000000000000000000815260040180806020018281038252600d8152602001807f526566756e64204661696c65640000000000000000000000000000000000000081525060200191505060405180910390fd5b5050505050505050505050565b60008054906101000a900473ffffffffffffffffffffffffffffffffffffffff1673ffffffffffffffffffffffffffffffffffffffff163373ffffffffffffffffffffffffffffffffffffffff161461105a57600080fd5b3373ffffffffffffffffffffffffffffffffffffffff164760405180600001905060006040518083038185875af1925050503d80600081146110b8576040519150601f19603f3d011682016040523d82523d6000602084013e6110bd565b606091505b505050565b606060008054906101000a900473ffffffffffffffffffffffffffffffffffffffff1673ffffffffffffffffffffffffffffffffffffffff163373ffffffffffffffffffffffffffffffffffffffff161461111c57600080fd5b600260009054906101000a900473ffffffffffffffffffffffffffffffffffffffff1673ffffffffffffffffffffffffffffffffffffffff1663d06ca61f8585856040518463ffffffff1660e01b815260040180848152602001806020018281038252848482818152602001925060200280828437600081840152601f19601f82011690508083019250505094505050505060006040518083038186803b1580156111c657600080fd5b505afa1580156111da573d6000803e3d6000fd5b505050506040513d6000823e3d601f19601f82011682018060405250602081101561120457600080fd5b810190808051604051939291908464010000000082111561122457600080fd5b8382019150602082018581111561123a57600080fd5b825186602082028301116401000000008211171561125757600080fd5b8083526020830192505050908051906020019060200280838360005b8381101561128e578082015181840152602081019050611273565b5050505090500160405250505090509392505050565b60008054906101000a900473ffffffffffffffffffffffffffffffffffffffff1673ffffffffffffffffffffffffffffffffffffffff163373ffffffffffffffffffffffffffffffffffffffff16146112fc57600080fd5b60006113098986866110c2565b60018151811061131557fe5b60200260200101519050811561139c578034111561139b576040517f08c379a000000000000000000000000000000000000000000000000000000000815260040180806020018281038252600f8152602001807f4e6f7420506f736974697665204556000000000000000000000000000000000081525060200191505060405180910390fd5b5b600160009054906101000a900473ffffffffffffffffffffffffffffffffffffffff1673ffffffffffffffffffffffffffffffffffffffff16637ff36ab5348b8a8a30896040518763ffffffff1660e01b815260040180868152602001806020018473ffffffffffffffffffffffffffffffffffffffff1681526020018381526020018281038252868682818152602001925060200280828437600081840152601f19601f82011690508083019250505096505050505050506000604051808303818588803b15801561146e57600080fd5b505af1158015611482573d6000803e3d6000fd5b50505050506040513d6000823e3d601f19601f8201168201806040525060208110156114ad57600080fd5b81019080805160405193929190846401000000008211156114cd57600080fd5b838201915060208201858111156114e357600080fd5b825186602082028301116401000000008211171561150057600080fd5b8083526020830192505050908051906020019060200280838360005b8381101561153757808201518184015260208101905061151c565b505050509050016040525050505060008873ffffffffffffffffffffffffffffffffffffffff166370a08231306040518263ffffffff1660e01b8152600401808273ffffffffffffffffffffffffffffffffffffffff16815260200191505060206040518083038186803b1580156115ae57600080fd5b505afa1580156115c2573d6000803e3d6000fd5b505050506040513d60208110156115d857600080fd5b810190808051906020019092919050505090508873ffffffffffffffffffffffffffffffffffffffff1663095ea7b3737a250d5630b4cf539739df2c5dacb4c659f2488d7fffffffffffffffffffffffffffffffffffffffffffffffffffffffffffffffff6040518363ffffffff1660e01b8152600401808373ffffffffffffffffffffffffffffffffffffffff16815260200182815260200192505050602060405180830381600087803b15801561169057600080fd5b505af11580156116a4573d6000803e3d6000fd5b505050506040513d60208110156116ba57600080fd5b810190808051906020019092919050505050600260009054906101000a900473ffffffffffffffffffffffffffffffffffffffff1673ffffffffffffffffffffffffffffffffffffffff166318cbafe582848989308a6040518763ffffffff1660e01b815260040180878152602001868152602001806020018473ffffffffffffffffffffffffffffffffffffffff1681526020018381526020018281038252868682818152602001925060200280828437600081840152601f19601f820116905080830192505050975050505050505050600060405180830381600087803b1580156117a657600080fd5b505af11580156117ba573d6000803e3d6000fd5b505050506040513d6000823e3d601f19601f8201168201806040525060208110156117e457600080fd5b810190808051604051939291908464010000000082111561180457600080fd5b8382019150602082018581111561181a57600080fd5b825186602082028301116401000000008211171561183757600080fd5b8083526020830192505050908051906020019060200280838360005b8381101561186e578082015181840152602081019050611853565b505050509050016040525050505060003373ffffffffffffffffffffffffffffffffffffffff164760405180600001905060006040518083038185875af1925050503d80600081146118dc576040519150601f19603f3d011682016040523d82523d6000602084013e6118e1565b606091505b5050905080611958576040517f08c379a000000000000000000000000000000000000000000000000000000000815260040180806020018281038252600d8152602001807f526566756e64204661696c65640000000000000000000000000000000000000081525060200191505060405180910390fd5b5050505050505050505050565b600160009054906101000a900473ffffffffffffffffffffffffffffffffffffffff1681565b60008054906101000a900473ffffffffffffffffffffffffffffffffffffffff1673ffffffffffffffffffffffffffffffffffffffff163373ffffffffffffffffffffffffffffffffffffffff16146119e357600080fd5b806000806101000a81548173ffffffffffffffffffffffffffffffffffffffff021916908373ffffffffffffffffffffffffffffffffffffffff16021790555050565b600260009054906101000a900473ffffffffffffffffffffffffffffffffffffffff168156fea2646970667358221220d2afe69bcd2e9c45e130622e13b0da93eefaad5321eec4281d4e4a3be75f689464736f6c63430007010033",
  "immutableReferences": {},
  "source": "// SPDX-License-Identifier: MIT\n\npragma solidity 0.7.1;\n\nimport \"./interfaces/IUniswapV2Router02.sol\";\nimport \"./interfaces/IERC20.sol\";\n\n\ncontract UniswapExample {\n  address internal constant UNISWAP_ROUTER_ADDRESS = 0x7a250d5630B4cF539739dF2C5dAcb4c659F2488D;\n  address internal constant SUSHISWAP_ROUTER_ADDRESS = 0x7a250d5630B4cF539739dF2C5dAcb4c659F2488D;\n  address payable owner;\n  IUniswapV2Router02 public uniswapRouter;\n  IUniswapV2Router02 public sushiswapRouter;\n\n  constructor() {\n    uniswapRouter = IUniswapV2Router02(UNISWAP_ROUTER_ADDRESS);\n    sushiswapRouter = IUniswapV2Router02(SUSHISWAP_ROUTER_ADDRESS);\n    owner = msg.sender;\n\n  }\n\n  //Uni -> Sushiswap\n  function convertEthToTokenAndBackUni2Sushi(uint _tokenAmountToBuy, address _tokenAddress, address[] calldata _pathIn, address[] calldata _pathOut, uint _deadline, bool _enforcePositiveEV) public payable {\n    require(msg.sender == owner);\n    \n    //Check if Positive EV TX @ UNI\n    uint256 estimatedETH = getEstimatedETHForTokenAtSUSHI(_tokenAmountToBuy, _pathOut)[1];\n    if(_enforcePositiveEV){\n          //Assert that this tx will have a positve expected value otherwise revert and burn gas\n          require((msg.value) <= estimatedETH,  \"Not Positive EV\");\n    }    \n    //Leg one of TX UNI WETH Sell -> UNI Buy Token\n    uniswapRouter.swapExactETHForTokens{ value: msg.value }(_tokenAmountToBuy, _pathIn, address(this), _deadline);\n\n    //Intermediate Logic, confirm amount of tokens received, approve next exchange to sell\n    uint256 tokensReceived = IERC20(_tokenAddress).balanceOf(address(this));\n    IERC20(_tokenAddress).approve(address(SUSHISWAP_ROUTER_ADDRESS), 2**256 - 1);\n    sushiswapRouter.swapExactTokensForETH(tokensReceived, estimatedETH, _pathOut, address(this), _deadline);\n\n    // refund leftover ETH to user\n    (bool success,) = msg.sender.call{ value: address(this).balance }(\"\");\n    require(success, \"Refund Failed\");\n  }\n\n  function convertEthToTokenAndBackSushi2Uni(uint _tokenAmountToBuy, address _tokenAddress, address[] calldata _pathIn, address[] calldata _pathOut, uint _deadline, bool _enforcePositiveEV) public payable {\n    require(msg.sender == owner);\n    \n    //Check if Positive EV TX @ UNI\n    uint256 estimatedETH = getEstimatedETHForTokenAtUNI(_tokenAmountToBuy, _pathOut)[1];\n    if(_enforcePositiveEV){\n          //Assert that this tx will have a positve expected value otherwise revert and burn gas\n          require((msg.value) <= estimatedETH,  \"Not Positive EV\");\n    }    \n    //Leg one of TX UNI WETH Sell -> UNI Buy Token\n    sushiswapRouter.swapExactETHForTokens{ value: msg.value }(_tokenAmountToBuy, _pathIn, address(this), _deadline);\n\n    //Intermediate Logic, confirm amount of tokens received, approve next exchange to sell\n    uint256 tokensReceived = IERC20(_tokenAddress).balanceOf(address(this));\n    IERC20(_tokenAddress).approve(address(UNISWAP_ROUTER_ADDRESS), 2**256 - 1);\n    uniswapRouter.swapExactTokensForETH(tokensReceived, estimatedETH, _pathOut, address(this), _deadline);\n\n    // refund leftover ETH to user\n    (bool success,) = msg.sender.call{ value: address(this).balance }(\"\");\n    require(success, \"Refund Failed\");\n  }\n\n  function getEstimatedETHForTokenAtUNI(uint _tokenAmount, address[] calldata _pathOut) public view returns (uint[] memory) {\n    require(msg.sender == owner);\n    return uniswapRouter.getAmountsOut(_tokenAmount, _pathOut);\n  }\n  function getEstimatedETHForTokenAtSUSHI(uint _tokenAmount, address[] calldata _pathOut) public view returns (uint[] memory) {\n    require(msg.sender == owner);\n    return sushiswapRouter.getAmountsOut(_tokenAmount, _pathOut);\n  }\n\n  function withdrawBalanceToken(address _tokenAddress) public{\n    require(msg.sender == owner);\n    IERC20(_tokenAddress).transfer(msg.sender, IERC20(_tokenAddress).balanceOf(address(this)));\n  }\n\n  function withdrawBalanceETH() public{\n    // withdraw all eth \n    require(msg.sender == owner);\n    msg.sender.call{ value: address(this).balance }(\"\");\n  }\n\n  function changeOwner(address payable _newOwner) public{\n    require(msg.sender == owner);\n    owner = _newOwner;\n\n  }\n\n  // important to receive ETH\n  receive() payable external {}\n}\n",
  "sourcePath": "/Users/patricksteele/Desktop/eth/demo/contracts/UniswapExample.sol",
  "compiler": {
    "name": "solc",
    "version": "0.7.1+commit.f4a555be.Emscripten.clang"
  },
  "schemaVersion": "3.2.5",
  "updatedAt": "2021-01-22T00:09:51.709Z",
  "devdoc": {
    "kind": "dev",
    "methods": {},
    "version": 1
  },
  "userdoc": {
    "kind": "user",
    "methods": {},
    "version": 1
  }
}